:020000040800F2
:1000000048050020050100080F0900080B09000839
:100010000D09000865080008BD0C0008000000007C
:10002000000000000000000000000000210A00089D
:10003000670800080000000075090008CD0A0008E4
:100040001F0100081F0100081F0100081F01000810
:100050001F0100081F0100081F0100081F01000800
:100060001F0100081F0100081F0100081F010008F0
:100070001F0100081F0100081F0100081F010008E0
:100080001F0100081F0100081F0100081F010008D0
:100090001F0100081F0100081F0100081F010008C0
:1000A0001F0100081F0100081F0100081F010008B0
:1000B0001F0100081F0100081F0100081F010008A0
:1000C0001F0100081F0100081F0100081F01000890
:1000D0001F0100082D0B00081F0100081F01000868
:1000E0001F0100081F0100081F010008DFF810D0E1
:1000F00000F0B6FA004800476D1A0008AFF3008020
:10010000480500200648804706480047FEE7FEE70E
:10011000FEE7FEE7FEE7FEE7FEE7FEE7FEE7FEE7B7
:10012000DD0A0008ED00000810B5431A934209D219
:100130008318881803E010F8011D03F8011D521EF2
:10014000F9D210BD40EA01039B0703D009E008C9BA
:10015000121F08C0042AFAD203E011F8013B00F88C
:10016000013B521EF9D210BDD2B201E000F8012BC2
:10017000491EFBD270470022F6E710B513460A4627
:1001800004461946FFF7F0FF204610BD30B505467E
:100190002A460B4612F8010B13F8014B08B1A04296
:1001A000F8D01CB1002802D06D1CF1E7284630BD04
:1001B000421C10F8011B0029FBD1801A704730B592
:1001C00004460020034600E05B1C934203D2E05C3F
:1001D000CD5C401BF8D030BD70B5064600F0A4FDE4
:1001E000046805460A220021304600F049F82C60D8
:1001F00070BD30B50B46014600202022012409E0E5
:1002000021FA02F59D4205D303FA02F5491B04FACF
:1002100002F52844151EA2F10102F1DC30BD2DE9E2
:10022000F05F0546002092469B468846064681467A
:1002300040241BE0284641464746224600F031FA5A
:1002400053465A46C01A914110D3114618462246C9
:1002500000F018FA2D1A67EB01084F4622460120DC
:10026000002100F00FFA17EB00094E41201EA4F107
:100270000104DFDC484631462A464346BDE8F09F8C
:100280002DE9F04791460F4680460446002614F8B3
:10029000015B2DB100F028FA0068405DC007F6D17F
:1002A0002B2D02D02D2D18D0641E4A4639462046EB
:1002B00000F01EFA27B13968A14201D1C7F80080C9
:1002C00071054FF002040BD54042002803DD00F019
:1002D0002BFD0460A007BDE8F08746F48066E4E7E4
:1002E0000028F8DA00F020FD04606FF00040F2E72B
:1002F0002DE9FE4F804681EA0300C00F0C460090B6
:1003000021F0004123F00045B8EB0200A94105D2DD
:100310004046214690461C460B46024623F00040CC
:10032000104347D0270DC7F30A00C3F30A510290C8
:10033000401A019040286BDAC3F3130040F4801B8D
:100340000098924620B10023D2EB030A63EB0B0B1B
:1003500001985946C0F14002504600F093F9064614
:100360000D4650465946019A00F0ABF910EB0800D3
:100370006141002487EA115284EAE7731A4340D0AE
:10038000009A62B3019A012A4FEA075215DC001B5A
:1003900061EB02014FF0004202EA0752CDE9004250
:1003A000001C41F5801132462B4600F0FFF903B0E6
:1003B000BDE8F08F40462146F9E7001B61EB0201E2
:1003C000001C41F5801300185B412018A2F50017AE
:1003D00047EB030140EAD570B6196D4111E06D0895
:1003E0004FEA360645EAC0754FEA0752001B61EB3B
:1003F0000201001C41F5801149084FEA3000001944
:10040000514132462B4603B0BDE8F04F00F0BFB972
:100410000098012240000023D0EB020263EBE0735E
:10042000009821464FEAE074B8EB000061EB04014C
:10043000E9E783F000435BE781F0004158E72DE9ED
:10044000FE4F81EA030404F0004421F000410094CF
:100450004FF0000B23F0004350EA01045ED052EA53
:1004600003045BD0C3F30A54C1F30A552C44A4F22D
:10047000F3340194A0FB0254C1F3130141F4801141
:10048000C3F3130343F4801301FB024400FB034E48
:10049000840A970A44EA815447EA8357A4FB076811
:1004A00002958D0A05FB07854FEA932C04FB0C543B
:1004B0002705029D4FEA065847EA1637B5EB0805AF
:1004C0006EEB070C870E920E47EA811742EA831201
:1004D000A7FB0201B6EB0B0164EB00042B0D43EA12
:1004E0000C335E1844EB1C50DA465146E7FB020120
:1004F000C5F313044FEA0B3343EA14534FEA0432B3
:10050000019C43EA0603A4F10C040294009CCDE98B
:1005100000B400F04BF903B0BDE8F08F00200146B5
:10052000F9E72DE9F04D81EA030404F0004B21F0D6
:10053000004514464FF0000A23F0004150EA05023E
:1005400020D054EA01021DD0C5F30A570246C5F374
:100550001303C1F31300C1F30A5640F4801543F4AA
:100560008013A7EB0608101BD64608F2FD3873EB84
:10057000050002D308F1010801E092185B41B8F1CF
:10058000000F03DA00200146BDE8F08D00204FF493
:100590008011064684460EE0171B73EB050705D352
:1005A000121B63EB050306434CEA010C49084FEAB2
:1005B000300092185B4150EA0107EDD152EA030086
:1005C00012D082EA040083EA0501084305D0101B1B
:1005D000AB4106D20122002306E000224FF0004387
:1005E00002E06FF0010253101AEB06004CEB0851C9
:1005F00010EB0A0041EB0B01BDE8F04D00F0C7B86D
:10060000C1F30A52C1F3130140F2FF3341F48011E8
:100610009A4202DA00200146704740F233439A4280
:10062000A2F2334202DC524200F03BB800F02AB89A
:1006300030B5041E71F1000404DB4FF00044404269
:1006400064EB0101141E73F1000405DB1C464FF03E
:100650000043524263EB0403994208BF904230BD0D
:10066000064C074D06E0E06840F0010394E80700FF
:1006700098471034AC42F6D3FFF73CFD3022000817
:1006800050220008202A04DB203A00FA02F1002060
:1006900070479140C2F1200320FA03F319439040C0
:1006A0007047202A04DB203A21FA02F0002170472B
:1006B00021FA02F3D040C2F12002914008431946CA
:1006C0007047202A06DBCB17203A41FA02F043EAB2
:1006D000E07306E041FA02F3D040C2F120029140FB
:1006E0000843194670470000004870470022000880
:1006F0002DE9F05F82460078002715468B460AF107
:100700000104B946302801D09DB113E014F8010B63
:100710000127782803D0582801D045B10AE00DB14F
:10072000102D07D10027102514F8010B02E0082531
:1007300000E00A250026B0460EE005FB080005FB98
:1007400006F1012701EB10461FFA80F8B6F5803F4D
:1007500000D3B94614F8010B294600F075F80028BB
:10076000EBDABBF1000F05D00FB1641E00E0544678
:10077000CBF80040B9F1000F06D000F0D5FA022105
:100780000160C81EBDE8F09F48EA0640FAE710B5D0
:10079000141E73F1000408DA401C41F100019218A4
:1007A0005B411A4301D120F0010010BD2DE9F04D4D
:1007B00092469B4611B1B1FA81F202E0B0FA80F2A2
:1007C00020329046FFF75EFF04460F4640EA0A00DB
:1007D00041EA0B0153465A46084313D0114653EAE7
:1007E000010019D0C8F140025046FFF75AFF0546F4
:1007F0000E46504659464246FFF744FF084305D08F
:10080000012004E020463946BDE8F08D0020054374
:1008100046EAE0762C4337430A986305E40AA0EBE6
:1008200008000022FD0A44EA47540A3002D500209D
:100830000146E9E7010510196941DDE9084500199C
:100840006941BDE8F04DA2E73A2800D2303820F0E7
:100850002002412A01D3A2F13700884201D34FF090
:10086000FF307047FEE77047F0B5CA78002502F008
:100870000F03D20601D58A7813430A784FF00F0E82
:1008800012F0FF0F4FF001021CD004680F8802FA2B
:1008900005F63740B74211D14FEA850C0EFA0CF736
:1008A00024EA070703FA0CF43C43CF78282F02D040
:1008B000482F02D002E0466100E006616D1C082D61
:1008C000E4D304600C88FF2C1ED944685FF0000656
:1008D00006F1080702FA07F50F882F40AF420FD143
:1008E0004FEA860C0EFA0CF7BC4303FA0CF73C43B4
:1008F000CF78282F00D14561CF78482F00D10561EE
:10090000761C082EE4D34460F0BDFEE7FEE7704796
:1009100070B50F23C47801780122F4B1144C246817
:10092000457804F4E064C4F5E064240AC4F10406E4
:10093000E3408478B5401C402C4301F1E0212301C1
:1009400081F80034007800F01F018A4040098000DF
:1009500000F1E020C0F8002170BD01F01F008240CE
:100960004809800000F1E020C0F8802170BD00003F
:100970000CED00E070470000044A0029916901D0A5
:10098000014300E081439161704700000010024084
:1009900030B51F494A6812F00C031E4A03D0042BDD
:1009A00001D0082B21D002604A680F231A4C03EAB9
:1009B0001212A35C0268DA4042604B68072505EA20
:1009C0001323E35C22FA03F383604B6805EAD32325
:1009D000E35CDA40C2604968032303EA9131231FD4
:1009E000595CB2FBF1F1016130BD4A684B6802F419
:1009F00070124FF0020413F4803F04EB924202D0D5
:100A00004B689B0301D5054B00E0024B5A43CAE7F4
:100A10000010024000127A001800002000093D007A
:100A2000704700000CB50021264801910091026832
:100A300042F4803202604FF4A063026802F4003294
:100A40000092019A521C0192009A12B9019A9A429C
:100A5000F3D10268920333D5012100911A490A6843
:100A600042F010020A600A6822F007020A600A686F
:100A700042F002020A604168416041684160416899
:100A800041F480614160416821F47C11416041681A
:100A900041F4E8114160016841F080710160016832
:100AA0008901FCD5416821F003014160416841F0B2
:100AB000020141604168C1F381010229FAD10CBDF4
:100AC00000910CBD00100240002002400248016865
:100AD000491C016070470000280000200F4810B535
:100AE000016841F00101016041680D4A1140416017
:100AF00001680C4A11400160016821F48021016005
:100B0000416821F4FE0141604FF41F018160FFF74D
:100B100089FF05494FF00060086010BD00100240D9
:100B20000000FFF8FFFFF6FE08ED00E038B50C4CC2
:100B300040F225552946204600F02BF800280DD01C
:100B4000204600F0B3F88DF800000122694600202D
:100B500000F0D6FD2946204600F004F838BD00001C
:100B6000003801400A0A01219140C94301807047C1
:100B70000029818902D041F4005101E021F40051A3
:100B8000818170470246002012880A4200D001206D
:100B9000704730B501F01F0201240025C1F3421354
:100BA00004FA02F2012B0FD0022B0FD0838A4FEAF6
:100BB00011210088134204FA01F400EA040001D074
:100BC00000B10125284630BD8389F0E7038AEEE7AE
:100BD00010B5C1F3421301F01F040121A140012B04
:100BE00007D0022B07D01430002A026805D00A4330
:100BF00004E00C30F8E71030F6E78A43026010BDDD
:100C000030B50446008A85B00D464CF6FF710840A9
:100C1000E98801432182A1894EF6F3100140A8889A
:100C20002A8910436A890A431043A081A08A4FF69B
:100C3000FF410840A9890143A1826846FFF7A8FE49
:100C40001948844201D1039800E00298A18909045F
:100C500000EBC00101EB0010296801D5490000E05C
:100C60008900B0FBF1F06422B0FBF2F109010B093D
:100C70006FF018056B4300EB8300A3891D044FF050
:100C8000320306D503EBC000B0FBF2F000F0070022
:100C900005E003EB0010B0FBF2F000F00F0008439A
:100CA000208105B030BD0000003801408088C0F3CD
:100CB00008007047C1F3080181807047FEE700001B
:100CC0000FB47CB50C0009AD01D0611E00E000211D
:100CD000CDE90001064B6A462946089800F0FAF86B
:100CE000002C02D0009A002111707CBC5DF814FB2E
:100CF000DB1500087CB50C001D461646014601D0E8
:100D0000601E00E00020CDE90010064B6A4629462F
:100D1000304600F0DFF8002C02D0009A002111705C
:100D20007CBD0000DB15000800487047340000203F
:100D300002E008C8121F08C1002AFAD170477047A4
:100D4000002001E001C1121F002AFBD17047000002
:100D50002DE9FF5F82B00021DDE90430020DDDF8EE
:100D600040B0034318D044F61050A2F2FF32424381
:100D70001514119801281FD0A5EB0B00401C5FEA49
:100D8000000A4FF000064E4FDFF83891B04650464B
:100D900015D5CAF1000413E0119801244AA30128D3
:100DA00001D16FEA0B010298119AC0E90031C0E944
:100DB000024206B0BDE8F09FCBF10000DFE7044639
:100DC0000021404A491842EB0450CDE9001012E0DE
:100DD000E00707D032463B4640464946FFF72FFB27
:100DE0008046894632463B4610461946FFF727FBA8
:100DF00006460F466410002CEAD1DDE90401DDE966
:100E00000023BAF1000F06DAFFF719FB42464B4602
:100E1000FFF715FB05E0FFF784FB42464B46FFF763
:100E200080FB04460E460022284BFFF701FC03D846
:100E30004FF0FF30014607E00022254B20463146A7
:100E4000FFF756FAFFF7DCFB102409E0002C0ADB61
:100E50000A220023FFF7E3F9039B30321A55641E80
:100E600050EA0102F2D1641C039AC4F11103144444
:100E7000119A012A03D0012208430DD10AE0084348
:100E800004D000204FF0110B119072E7A3EB0B057B
:100E90006D1E0DE05B4504DD4FF0000205F101051C
:100EA00004E003DA4FF00002A5F10105002AECD0BE
:100EB00002981199C0E90231C0E9004579E70000C4
:100EC000000014400000F03F300000000000F0433C
:100ED0000000E03F2DE9FF4F95B09A468846064650
:100EE0000025EEE1252877D100242746F94A012183
:100EF000039400E0044316F8013F203B01FA03F09D
:100F00001042F7D130782A2811D06FF02F033078B3
:100F1000A0F13002092A16D8039A44F0020402EB29
:100F2000820203EB42021044761C0390EFE758F86C
:100F3000042B0392002A03DA504244F40054039035
:100F400044F00204761C30782E2816D116F8010FD2
:100F500044F004042A280DD06FF02F023078A0F15D
:100F60003003092B09D807EB870302EB4303C718AB
:100F7000761CF3E758F8047B761C30786C280FD089
:100F800006DC4C2817D068280DD06A2814D104E05C
:100F9000742810D07A280FD10DE044F400140AE030
:100FA00044F4801401E044F440147278824202D187
:100FB00004F58014761C761C307866280BD013DC80
:100FC000582877D009DC002875D04528F6D0462867
:100FD000F4D047281AD193E118E0632835D064286B
:100FE00079D0652812D18BE1702873D008DC67288E
:100FF000F1D069286FD06E280DD06F2806D1ACE0F3
:1010000073282CD0752874D0782853D0524617995D
:1010100090476D1C54E1C4F30250022809D0032804
:101020000DD0D8F8001004280DD00D6008F1040888
:1010300046E1D8F80010EA17C1E90052F6E7D8F8FF
:1010400000100D80F2E70D70F0E718F8041B8DF822
:10105000001000208DF80100EB46012003E058F855
:1010600004BB4FF0FF3061074FF0000102D40DE0E8
:1010700009F101018946B9420FDA8145F8DB1BF815
:1010800009100029F4D108E009F1010189468142E3
:10109000FADB1BF809100029F6D103985346A0EBA0
:1010A000090721463846179A00F080FA284400EBD9
:1010B000090507E044E008E10DE01BF8010B52468A
:1010C00017999047B9F10109F7D25346214638469E
:1010D000179AF2E039E00A21C4F302524FF0000BF4
:1010E0000091022A06D058F8040BC117032A09D030
:1010F0000AE023E008F1070020F00702F2E802010D
:10110000904605E000B2C117042A01D140B2C117D0
:10111000002906DA0A460021404261EB02012D2235
:1011200002E0220504D52B228DF80420012203E0E1
:10113000E20701D02022F7E7914657E00A2100E0BC
:1011400010214FF0000B00910BE010214FF0000B2D
:1011500044F004040827009103E008204FF0000B3E
:101160000090C4F30252022A05D058F8040B002163
:10117000032A08D008E008F1070020F00702F2E88F
:101180000201904603E080B2042A00D1C0B24FF0C1
:10119000000922072AD53278702A07D0DDF800C06E
:1011A0008CF0100C5CEA0B0C05D00EE040228DF8A0
:1011B0000420012208E050EA010306D030238DF814
:1011C00004308DF8052002229146009B83F008032D
:1011D00053EA0B030AD150EA010201D1620705D597
:1011E00030228DF804204FF001097F1E3278582AF2
:1011F00004D039A20C920CAA02920BE03BA2F9E7B0
:101200005B46009AFFF70BF80C9B9B5C029A521E00
:101210000292137050EA0102F2D1029804A9081A4E
:1012200000F1200B600702D524F4803400E0012790
:101230005F4502DDA7EB0B0000E0002000EB0B0197
:10124000009003984944401A0390E00306D45346A3
:101250002146179A039800F0A9F90544002706E0F3
:1012600001A85246C05D179990476D1C7F1C4F45E1
:10127000F6DBE0030CD553462146179A039800F09D
:1012800095F9054404E030205246179990476D1CAB
:101290000099481E00900029F5DC08E002980299A8
:1012A00052460078491C0291179990476D1CBBF17A
:1012B0000001ABF1010BF1DC5BE100F065F90544E5
:1012C000761C307800287FF40DAE19B02846BDE8B2
:1012D000F08F0000092801003031323334353637C1
:1012E0003839616263646566000000003031323372
:1012F0003435363738394142434445460000000012
:10130000600700D4062708F1070020F00700F0E886
:101310000223804603F0004C5FEA0C0001D097A046
:1013200009E0200501D596A005E0E00701D095A0D1
:1013300001E0AFF24C001390307823F000436528B1
:101340000CD006DC452809D046281DD047287FD17F
:101350003BE0662818D067287AD136E00021112FAB
:1013600001DB112000E0781CCDE9000104A90CA8E4
:10137000FFF7EEFCDDE90D010C9A4FF0000B07F1D1
:101380000109109200914EE04FF000400097CDE926
:10139000011004A90CA8FFF7DBFCDDE90D020C9B92
:1013A0000F994FF0000B91461093009211B9791CE0
:1013B00000EB0109B7EB090003D4C0F1FF3B07F1D3
:1013C0000109A9EB0700019042E0012F00DA012793
:1013D0000021112F01DD112000E03846CDE9000188
:1013E00004A90CA8FFF7B4FCDDE90D010C9A0091EB
:1013F0004FF0000BB946109221070FD4009A4A45CE
:1014000003DA914601E0A9F10109B9F1010F05DD07
:10141000109AA9F10101515C3029F4D0B84202DAE6
:1014200010F1040F03DA0121CDE9011010E00028CA
:1014300003DC8344A9EB000102E0411C494500DDC7
:101440008946A0EB0B00401C01904FF00040029039
:10145000200705D40198484502DB4FF0FF3001908A
:1014600000208DF84B0002980DF14B07B0F1004FB2
:1014700025D002200C902B200D90029800280CDA29
:10148000404202902D200D9007E00A210298FEF7BD
:10149000B0FE3031029007F8011D0C99481E0C90E7
:1014A0000029F2DC02980028EFD1791E0D9808700F
:1014B000307800F0200040F0450007F8020D11A838
:1014C000C01BC01D02901398007800B1012000EBF2
:1014D0000901019801EBE071029801440398401A58
:1014E000401E0390E00306D453462146179A039802
:1014F00000F05CF805441398007818B1524617992B
:1015000090476D1CE00323D553462146179A039854
:1015100000F04CF805441BE0BBF1000F07DB00981E
:10152000584504DD1098179910F80B0001E0179941
:1015300030205246904701980BF1010B401E05F1F7
:101540000105019004D12E205246179990476D1C39
:10155000B9F10001A9F10109DEDC05E017F8010B82
:101560005246179990476D1C0299481E0290002917
:10157000F4DC53462146179A03989EE62D0000009E
:101580002B000000200000002DE9F041044600255A
:101590001E461746880404D405E039462020B0478B
:1015A0006D1C641EF9D52846BDE8F0812DE9F04197
:1015B000044600251E469046C80301D5302700E0AA
:1015C0002027880404D505E041463846B0476D1C05
:1015D000641EF9D52846BDE8F0814A68002A06D085
:1015E0000A68531C0B6010704868401E48607047C2
:1015F00070B502006FF0050016D1002914D00A68FA
:10160000002A11D009480022026042608260C26054
:1016100091E8780080E87800827382810A890868FE
:101620001146FEF7A8FD002070BD00003801002023
:101630002DE9F041060014460F466FF0050015D164
:101640000D4D2968A1B1002C10D0216800290DD0C2
:10165000304600F01BF823463A462846216800F041
:101660003BFC0446304600F037F82046BDE8F081E8
:101670006FF00400FAE700003801002000F090B994
:10168000014800687047000028000020704768B9D2
:1016900062B1114411F8010C3E2809D0022A05D389
:1016A0000A2803D111F8020C0D2801D00020704740
:1016B000012070470B46002803D11146184600F060
:1016C00023BD7047002803D1022202A1FFF7F2BF19
:1016D000704700000D0A000070470000074B03EB45
:1016E0000010036833B101B10B600AB1808910802A
:1016F000002070476FF004007047000038010020A0
:10170000F8B50B461049154601EB0014266876B172
:101710006BB1A289218957198F420BD900910146DB
:101720002B460AA000F046F96FF00300F8BD6FF0F9
:101730000400F8BDB0182A461946FEF7F5FCA0894A
:101740002844A0810020F8BD380100205B41543AB4
:1017500025645D205258204F564552464C4F572124
:1017600020282575202B202575203E202575290051
:1017700070B51546124A02EB0014206838B14DB11D
:10178000A2894B19934207D96FF0050070BD6FF025
:10179000040070BD002070BD521A521B1204120CBE
:1017A00004D0034408441946FEF7BEFCA089401B40
:1017B00080B2A081216808442946FEF7DCFCE9E7F5
:1017C0003801002010B5074901EB0014206828B14A
:1017D0002189FEF7D0FC0020A08110BD6FF004002D
:1017E00010BD0000380100202DE9F0471E46089B7F
:1017F000924605006FF0050972D0002970D0002EC6
:101800006ED083B3002001E0401C80B2884206D233
:101810002A5C3A2A03D00D2A01D00A2AF4D16FF0AB
:10182000060C884244D22A5C3A2A41D1401C80B23C
:10183000884202D22A5C202AF8D0884238D22A5C18
:101840000D2A35D00A2A33D00027B846044629E0AD
:101850002A5C222A08D00D2A26D00A2A24D01AB3BC
:101860002C2A0AD01CE03BE0B8F1000F02D04FF068
:10187000000815E04FF0010812E0B8F1000F0FD199
:1018800057451AD07F1C401CFFB284B201E0641C93
:10189000A4B28C4202D2285D2028F8D0601E80B20B
:1018A000401C80B28842D3D3574501D1844204D32F
:1018B0006046BDE8F087401E80B2A04207D92918D3
:1018C00011F8011C2029F6D001E0641CA4B2844266
:1018D00002D2295D2029F8D0001B87B29F4201D394
:1018E0004846E6E729193A463046FEF71DFC002037
:1018F000F05538B2DDE700000B460B4910B501EB9F
:1019000000126FF00204106860B1917A994209D90F
:10191000918939B1526852F8232000F0BBFA08B11E
:10192000002010BD204610BD380100207CB50546C2
:1019300001AA69460020FFF7D1FEBDF80400022885
:1019400027D3009C29462046FEF720FC002820D003
:10195000001B85B2BDF804002C46401E009901E032
:10196000641CA4B2844206DA0A5D0D2AF8D10A1971
:1019700052780A2AF4D184420BDA4A19611B0C46C8
:1019800004A000F017F8A41CA2B229460020FFF71B
:10199000EFFE7CBD5B5552435D20252E2A7300006F
:1019A000034A116813685B1A8342FBD37047000037
:1019B000280000200FB470B52248C8B00068224942
:1019C0001822B0FBF1F1B1FBF2F302FB13134EF658
:1019D0006021B0FBF1F23C21B2FBF1F401FB1422D7
:1019E0004FF47A74B0FBF4F5B5FBF1F601FB165138
:1019F000B0FBF4F5CDE9002104FB1500029013A221
:101A0000102143A8FFF75CF94DAB4FF4807103A898
:101A10004C9AFFF76FF9044643A8FEF7C9FB81B261
:101A200043A800F071FB002C03DDA1B203A800F075
:101A30006BFB02210CA000F067FB48B070BC5DF8A6
:101A400014FB00002800002080EE36005B253032B9
:101A50006C753A2530326C753A2530326C752E250E
:101A600030336C755D0000000D0A000090B0FFF788
:101A700035F866484FF47A710068B0FBF1F0B0F1C8
:101A8000807F0DD220F07F414FF0E020491E416160
:101A90005F4AF02182F8141D002181610721016154
:101AA0004FF4E13000F0E0FA5AA0FFF783FF65A0A1
:101AB000FFF780FF6EA0FFF77DFF78A0FFF77AFFAA
:101AC00054A0FFF777FF80A0FFF774FF844C0DF15F
:101AD000200C94E80F008CE80F0008A90020FFF705
:101AE00087FD80A0FFF766FF84A0FFF763FF103437
:101AF00094E80F008DE80F0000216A460846103C6C
:101B0000FFF796FD10B182A0FFF754FF84A0FFF706
:101B100051FF002388A220216846FFF7D1F804F185
:101B200024000DAB07C883E807000021CDF830D0B2
:101B30000CAA0846FFF77CFD10B181A0FFF73AFF21
:101B400084A0FFF737FF30340DF1300C94E80F001C
:101B50008CE80F0000210CAA0846FFF769FD002859
:101B600017D086A0FFF726FF8AA0FFF723FF8DA0DE
:101B7000FFF720FF99A0FFF71DFFA6A0FFF71AFFB0
:101B8000B3A0FFF717FF0020FFF71CFE4FF4FA7415
:101B900024E002AA01A90020FFF7A0FD00240825E7
:101BA00003AEE2B206AB0095BDF808100198FFF74E
:101BB0001BFE002804DD06A8FEF70EFB46F82400F5
:101BC000641C032CEDDB0DF10C0CA7A09CE80E00AF
:101BD000FFF7F0FEC8E7ABA0FFF7A8FE002108461C
:101BE000FFF78AFE0028F6D002E0A8A0FFF79EFECD
:101BF00001210020FFF780FE0028F6D00020FFF72B
:101C0000E1FD2046FFF7CCFEE8E7000000000020E1
:101C10000FE000E02B3D3D3D3D3D3D3D3D3D3D3D2B
:101C20003D3D3D3D3D3D3D3D3D3D3D3D3D3D3D3DE4
:101C30003D3D3D3D3D3D3D3D3D3D3D3D3D3D3D2BE6
:101C4000000000007C20202020456D6241546C691A
:101C50006E6B2076322E3020207C202053544D3362
:101C600032463130334338202020202020207C0091
:101C70007C20202020555341525431205041392D91
:101C80005041313020402020313135323030206217
:101C9000707320090920207C000000007C20202097
:101CA000206769746875622E636F6D2F5A65726F55
:101CB0004F6E654C61622F456D6241546C696E6B6D
:101CC0002020202020207C005B424F4F545D205379
:101CD000797374656D20496E6974204F4B00000064
:101CE0003C2100085B494E49545D204368616E6E9B
:101CF000656C203020726561647900005B44454D5D
:101D00004F5D204154202D3E204F4B5C725C6E0095
:101D10005B44454D4F5D204154204641494C0000F5
:101D20005B44454D4F5D2041544530202D3E204FB2
:101D30004B5C725C6E00000041544525640000005D
:101D40005B44454D4F5D2041544530204641494C50
:101D5000000000005B44454D4F5D2041542B47453A
:101D6000544D4F4445202D3E202B4D4F44453A3095
:101D70002C312C325C725C6E000000005B44454DDF
:101D80004F5D2041542B4745544D4F44452046411B
:101D9000494C000020205552432054657374733A17
:101DA0000D0A000020202B524543563A48656C6CC2
:101DB0006F5C725C6E2020202020202020202020BC
:101DC000202020202020202020202020202D3E20E8
:101DD00064617461205552430000000020202B53A1
:101DE0005441543A302C315C725C6E20202020200B
:101DF00020202020202020202020202020202020E3
:101E000020202020202D3E2073746174757320558E
:101E10005243000020202B524543563A4141415C39
:101E2000725C6E2B535441543A4242425C725C6E77
:101E30002B524543563A4343435C725C6E2020204C
:101E40002D3E206D697865642055524300000000E6
:101E50005B4C4F4F505D20506F6C6C696E67205526
:101E600052432E2E2E0000005B44454D4F5D204D09
:101E70006F6465733A2025642C2025642C2025642A
:101E8000000000002B524543563A00002B535441AA
:101E9000543A00002DE9F04106460C4690461046A3
:101EA000FEF786F9050011D0A8B2A0420ED8601B3B
:101EB000401C87B2002407E030192A464146FEF74D
:101EC0007EF930B1641CA4B2BC42F5D30020BDE859
:101ED000F0813019FBE700002DE9F84F04466FF060
:101EE000010A00681E4617468B46554608B1002079
:101EF00056E06FF00400BDE8F88FA07BFFF762FCAE
:101F00005846FEF755F982B2A07B5946FFF7D2FB3F
:101F1000A07BFFF7D7FB706820B15546FFF7B0FBF9
:101F2000814622E0B089FFF7A9FBA17B5A4629A090
:101F3000FFF740FD0FB12068386000253AE0708956
:101F4000FFF79CFBA289A07B2168FFF7A0FB60B193
:101F5000A18972682068FFF79DFF20B10FB120684A
:101F60003860002528E06FF00205FFF789FBA0EB41
:101F70000901B0898142E2D9F5B1A81C3089A0F1EC
:101F800001001DD0404508DD20680090A17B5B4624
:101F900008F1010215A0FFF70DFD08F10100C0B224
:101FA000318980464145A8D825B1A17B5A4619A060
:101FB000FFF700FD28469EE7A17B5A461AA0F7E7E7
:101FC0004045EADDA17B5B4608F101021CA0FFF75A
:101FD000F1FCE2E75B41543A25645D5B53554343B2
:101FE0005D20434D443A2573000000005B41543AA4
:101FF00025645D5B5741524E5D5B256868755D20C9
:10200000434D443A7B25737D2020524543563A2068
:10201000257300005B41543A25645D5B4552525D77
:1020200020434D443A2573005B41543A25645D5B7F
:10203000535543435D20434D443A7B25737D000057
:102040005B41543A25645D5B5741524E5D5B2568A8
:1020500068755D20434D443A7B25737D20205449AB
:102060004D45204F5554000030B5044687B001213E
:1020700044F20400FEF780FC4FF40070ADF810004D
:1020800018208DF8130003201D4D8DF8120004A9AF
:102090002846FEF7E9FB2815ADF8100004208DF85E
:1020A000130004A92846FEF7DFFB00940024ADF8D6
:1020B00008400C20134DADF80440ADF80A00ADF80F
:1020C0000640ADF80C4069462846FEF799FD01220E
:1020D00040F225512846FEF77BFD25208DF814009F
:1020E0008DF815408DF8164001208DF8170005A8D1
:1020F000FEF70EFC01212846FEF73AFD07B030BD81
:1021000000080140003801402DE9F0410E46074625
:102110000024094D0BE080212846FEF733FD0028FE
:10212000F9D0395D2846FEF7C5FD641CA4B2B4425F
:10213000F1D3BDE8F08100000038014038000020F4
:102140002C00002000010200000000002C220008EA
:102150002822000805001400B80B00000000000051
:102160002822000805001400B80B00001C220008FB
:102170001422000805001400B80B00000040404085
:10218000404040404040414141414140404040404A
:1021900040404040404040404040404040050202F6
:1021A00002020202020202020202020202202020B5
:1021B0002020202020202002020202020202909011
:1021C000909090901010101010101010101010100F
:1021D0001010101010101010020202020202888863
:1021E000888888880808080808080808080808086F
:1021F0000808080808080808020202024000000057
:102200007D2100082B535441543A00002B52454382
:10221000563A00002B4D4F44453A000041542B479D
:1022200045544D4F444500004F4B000041540000C1
:10223000502200080000002038000000300D000887
:10224000882200083800002010050000400D00081A
:1022500000A24A0400000000000000000102030484
:102260000607080902040608000000000102030432
:102270000102030406070809000000000C22000800
:08228000042200080000000028
:04000005080000ED02
:00000001FF
